{
  "_format": "hh-sol-artifact-1",
  "contractName": "Dappcord",
  "sourceName": "contracts/Dappcord.sol",
  "abi": [
    {
      "inputs": [
        {
          "internalType": "string",
          "name": "_name",
          "type": "string"
        },
        {
          "internalType": "string",
          "name": "_symbol",
          "type": "string"
        }
      ],
      "stateMutability": "nonpayable",
      "type": "constructor"
    },
    {
      "inputs": [
        {
          "internalType": "address",
          "name": "sender",
          "type": "address"
        },
        {
          "internalType": "uint256",
          "name": "tokenId",
          "type": "uint256"
        },
        {
          "internalType": "address",
          "name": "owner",
          "type": "address"
        }
      ],
      "name": "ERC721IncorrectOwner",
      "type": "error"
    },
    {
      "inputs": [
        {
          "internalType": "address",
          "name": "operator",
          "type": "address"
        },
        {
          "internalType": "uint256",
          "name": "tokenId",
          "type": "uint256"
        }
      ],
      "name": "ERC721InsufficientApproval",
      "type": "error"
    },
    {
      "inputs": [
        {
          "internalType": "address",
          "name": "approver",
          "type": "address"
        }
      ],
      "name": "ERC721InvalidApprover",
      "type": "error"
    },
    {
      "inputs": [
        {
          "internalType": "address",
          "name": "operator",
          "type": "address"
        }
      ],
      "name": "ERC721InvalidOperator",
      "type": "error"
    },
    {
      "inputs": [
        {
          "internalType": "address",
          "name": "owner",
          "type": "address"
        }
      ],
      "name": "ERC721InvalidOwner",
      "type": "error"
    },
    {
      "inputs": [
        {
          "internalType": "address",
          "name": "receiver",
          "type": "address"
        }
      ],
      "name": "ERC721InvalidReceiver",
      "type": "error"
    },
    {
      "inputs": [
        {
          "internalType": "address",
          "name": "sender",
          "type": "address"
        }
      ],
      "name": "ERC721InvalidSender",
      "type": "error"
    },
    {
      "inputs": [
        {
          "internalType": "uint256",
          "name": "tokenId",
          "type": "uint256"
        }
      ],
      "name": "ERC721NonexistentToken",
      "type": "error"
    },
    {
      "anonymous": false,
      "inputs": [
        {
          "indexed": true,
          "internalType": "address",
          "name": "owner",
          "type": "address"
        },
        {
          "indexed": true,
          "internalType": "address",
          "name": "approved",
          "type": "address"
        },
        {
          "indexed": true,
          "internalType": "uint256",
          "name": "tokenId",
          "type": "uint256"
        }
      ],
      "name": "Approval",
      "type": "event"
    },
    {
      "anonymous": false,
      "inputs": [
        {
          "indexed": true,
          "internalType": "address",
          "name": "owner",
          "type": "address"
        },
        {
          "indexed": true,
          "internalType": "address",
          "name": "operator",
          "type": "address"
        },
        {
          "indexed": false,
          "internalType": "bool",
          "name": "approved",
          "type": "bool"
        }
      ],
      "name": "ApprovalForAll",
      "type": "event"
    },
    {
      "anonymous": false,
      "inputs": [
        {
          "indexed": true,
          "internalType": "address",
          "name": "from",
          "type": "address"
        },
        {
          "indexed": true,
          "internalType": "address",
          "name": "to",
          "type": "address"
        },
        {
          "indexed": true,
          "internalType": "uint256",
          "name": "tokenId",
          "type": "uint256"
        }
      ],
      "name": "Transfer",
      "type": "event"
    },
    {
      "inputs": [
        {
          "internalType": "address",
          "name": "to",
          "type": "address"
        },
        {
          "internalType": "uint256",
          "name": "tokenId",
          "type": "uint256"
        }
      ],
      "name": "approve",
      "outputs": [],
      "stateMutability": "nonpayable",
      "type": "function"
    },
    {
      "inputs": [
        {
          "internalType": "address",
          "name": "owner",
          "type": "address"
        }
      ],
      "name": "balanceOf",
      "outputs": [
        {
          "internalType": "uint256",
          "name": "",
          "type": "uint256"
        }
      ],
      "stateMutability": "view",
      "type": "function"
    },
    {
      "inputs": [
        {
          "internalType": "uint256",
          "name": "",
          "type": "uint256"
        }
      ],
      "name": "channels",
      "outputs": [
        {
          "internalType": "uint256",
          "name": "id",
          "type": "uint256"
        },
        {
          "internalType": "string",
          "name": "name",
          "type": "string"
        },
        {
          "internalType": "uint256",
          "name": "cost",
          "type": "uint256"
        }
      ],
      "stateMutability": "view",
      "type": "function"
    },
    {
      "inputs": [
        {
          "internalType": "string",
          "name": "_name",
          "type": "string"
        },
        {
          "internalType": "uint256",
          "name": "_cost",
          "type": "uint256"
        }
      ],
      "name": "createChannel",
      "outputs": [],
      "stateMutability": "nonpayable",
      "type": "function"
    },
    {
      "inputs": [
        {
          "internalType": "uint256",
          "name": "tokenId",
          "type": "uint256"
        }
      ],
      "name": "getApproved",
      "outputs": [
        {
          "internalType": "address",
          "name": "",
          "type": "address"
        }
      ],
      "stateMutability": "view",
      "type": "function"
    },
    {
      "inputs": [
        {
          "internalType": "uint256",
          "name": "_id",
          "type": "uint256"
        }
      ],
      "name": "getChannel",
      "outputs": [
        {
          "components": [
            {
              "internalType": "uint256",
              "name": "id",
              "type": "uint256"
            },
            {
              "internalType": "string",
              "name": "name",
              "type": "string"
            },
            {
              "internalType": "uint256",
              "name": "cost",
              "type": "uint256"
            }
          ],
          "internalType": "struct Dappcord.Channel",
          "name": "",
          "type": "tuple"
        }
      ],
      "stateMutability": "view",
      "type": "function"
    },
    {
      "inputs": [
        {
          "internalType": "uint256",
          "name": "",
          "type": "uint256"
        },
        {
          "internalType": "address",
          "name": "",
          "type": "address"
        }
      ],
      "name": "hasJoined",
      "outputs": [
        {
          "internalType": "bool",
          "name": "",
          "type": "bool"
        }
      ],
      "stateMutability": "view",
      "type": "function"
    },
    {
      "inputs": [
        {
          "internalType": "address",
          "name": "owner",
          "type": "address"
        },
        {
          "internalType": "address",
          "name": "operator",
          "type": "address"
        }
      ],
      "name": "isApprovedForAll",
      "outputs": [
        {
          "internalType": "bool",
          "name": "",
          "type": "bool"
        }
      ],
      "stateMutability": "view",
      "type": "function"
    },
    {
      "inputs": [
        {
          "internalType": "uint256",
          "name": "_id",
          "type": "uint256"
        }
      ],
      "name": "mint",
      "outputs": [],
      "stateMutability": "payable",
      "type": "function"
    },
    {
      "inputs": [],
      "name": "name",
      "outputs": [
        {
          "internalType": "string",
          "name": "",
          "type": "string"
        }
      ],
      "stateMutability": "view",
      "type": "function"
    },
    {
      "inputs": [],
      "name": "owner",
      "outputs": [
        {
          "internalType": "address",
          "name": "",
          "type": "address"
        }
      ],
      "stateMutability": "view",
      "type": "function"
    },
    {
      "inputs": [
        {
          "internalType": "uint256",
          "name": "tokenId",
          "type": "uint256"
        }
      ],
      "name": "ownerOf",
      "outputs": [
        {
          "internalType": "address",
          "name": "",
          "type": "address"
        }
      ],
      "stateMutability": "view",
      "type": "function"
    },
    {
      "inputs": [
        {
          "internalType": "address",
          "name": "from",
          "type": "address"
        },
        {
          "internalType": "address",
          "name": "to",
          "type": "address"
        },
        {
          "internalType": "uint256",
          "name": "tokenId",
          "type": "uint256"
        }
      ],
      "name": "safeTransferFrom",
      "outputs": [],
      "stateMutability": "nonpayable",
      "type": "function"
    },
    {
      "inputs": [
        {
          "internalType": "address",
          "name": "from",
          "type": "address"
        },
        {
          "internalType": "address",
          "name": "to",
          "type": "address"
        },
        {
          "internalType": "uint256",
          "name": "tokenId",
          "type": "uint256"
        },
        {
          "internalType": "bytes",
          "name": "data",
          "type": "bytes"
        }
      ],
      "name": "safeTransferFrom",
      "outputs": [],
      "stateMutability": "nonpayable",
      "type": "function"
    },
    {
      "inputs": [
        {
          "internalType": "address",
          "name": "operator",
          "type": "address"
        },
        {
          "internalType": "bool",
          "name": "approved",
          "type": "bool"
        }
      ],
      "name": "setApprovalForAll",
      "outputs": [],
      "stateMutability": "nonpayable",
      "type": "function"
    },
    {
      "inputs": [
        {
          "internalType": "bytes4",
          "name": "interfaceId",
          "type": "bytes4"
        }
      ],
      "name": "supportsInterface",
      "outputs": [
        {
          "internalType": "bool",
          "name": "",
          "type": "bool"
        }
      ],
      "stateMutability": "view",
      "type": "function"
    },
    {
      "inputs": [],
      "name": "symbol",
      "outputs": [
        {
          "internalType": "string",
          "name": "",
          "type": "string"
        }
      ],
      "stateMutability": "view",
      "type": "function"
    },
    {
      "inputs": [
        {
          "internalType": "uint256",
          "name": "tokenId",
          "type": "uint256"
        }
      ],
      "name": "tokenURI",
      "outputs": [
        {
          "internalType": "string",
          "name": "",
          "type": "string"
        }
      ],
      "stateMutability": "view",
      "type": "function"
    },
    {
      "inputs": [],
      "name": "totalChannels",
      "outputs": [
        {
          "internalType": "uint256",
          "name": "",
          "type": "uint256"
        }
      ],
      "stateMutability": "view",
      "type": "function"
    },
    {
      "inputs": [],
      "name": "totalSupply",
      "outputs": [
        {
          "internalType": "uint256",
          "name": "",
          "type": "uint256"
        }
      ],
      "stateMutability": "view",
      "type": "function"
    },
    {
      "inputs": [
        {
          "internalType": "address",
          "name": "from",
          "type": "address"
        },
        {
          "internalType": "address",
          "name": "to",
          "type": "address"
        },
        {
          "internalType": "uint256",
          "name": "tokenId",
          "type": "uint256"
        }
      ],
      "name": "transferFrom",
      "outputs": [],
      "stateMutability": "nonpayable",
      "type": "function"
    },
    {
      "inputs": [],
      "name": "withdraw",
      "outputs": [],
      "stateMutability": "nonpayable",
      "type": "function"
    }
  ],
  "bytecode": "0x60806040523480156200001157600080fd5b50604051620030e5380380620030e583398181016040528101906200003791906200023b565b818181600090816200004a91906200050b565b5080600190816200005c91906200050b565b50505033600860006101000a81548173ffffffffffffffffffffffffffffffffffffffff021916908373ffffffffffffffffffffffffffffffffffffffff1602179055505050620005f2565b6000604051905090565b600080fd5b600080fd5b600080fd5b600080fd5b6000601f19601f8301169050919050565b7f4e487b7100000000000000000000000000000000000000000000000000000000600052604160045260246000fd5b6200011182620000c6565b810181811067ffffffffffffffff82111715620001335762000132620000d7565b5b80604052505050565b600062000148620000a8565b905062000156828262000106565b919050565b600067ffffffffffffffff821115620001795762000178620000d7565b5b6200018482620000c6565b9050602081019050919050565b60005b83811015620001b157808201518184015260208101905062000194565b60008484015250505050565b6000620001d4620001ce846200015b565b6200013c565b905082815260208101848484011115620001f357620001f2620000c1565b5b6200020084828562000191565b509392505050565b600082601f83011262000220576200021f620000bc565b5b815162000232848260208601620001bd565b91505092915050565b60008060408385031215620002555762000254620000b2565b5b600083015167ffffffffffffffff811115620002765762000275620000b7565b5b620002848582860162000208565b925050602083015167ffffffffffffffff811115620002a857620002a7620000b7565b5b620002b68582860162000208565b9150509250929050565b600081519050919050565b7f4e487b7100000000000000000000000000000000000000000000000000000000600052602260045260246000fd5b600060028204905060018216806200031357607f821691505b602082108103620003295762000328620002cb565b5b50919050565b60008190508160005260206000209050919050565b60006020601f8301049050919050565b600082821b905092915050565b600060088302620003937fffffffffffffffffffffffffffffffffffffffffffffffffffffffffffffffff8262000354565b6200039f868362000354565b95508019841693508086168417925050509392505050565b6000819050919050565b6000819050919050565b6000620003ec620003e6620003e084620003b7565b620003c1565b620003b7565b9050919050565b6000819050919050565b6200040883620003cb565b620004206200041782620003f3565b84845462000361565b825550505050565b600090565b6200043762000428565b62000444818484620003fd565b505050565b5b818110156200046c57620004606000826200042d565b6001810190506200044a565b5050565b601f821115620004bb5762000485816200032f565b620004908462000344565b81016020851015620004a0578190505b620004b8620004af8562000344565b83018262000449565b50505b505050565b600082821c905092915050565b6000620004e060001984600802620004c0565b1980831691505092915050565b6000620004fb8383620004cd565b9150826002028217905092915050565b6200051682620002c0565b67ffffffffffffffff811115620005325762000531620000d7565b5b6200053e8254620002fa565b6200054b82828562000470565b600060209050601f8311600181146200058357600084156200056e578287015190505b6200057a8582620004ed565b865550620005ea565b601f19841662000593866200032f565b60005b82811015620005bd5784890151825560018201915060208501945060208101905062000596565b86831015620005dd5784890151620005d9601f891682620004cd565b8355505b6001600288020188555050505b505050505050565b612ae380620006026000396000f3fe6080604052600436106101355760003560e01c806370a08231116100ab578063a14865cd1161006f578063a14865cd1461042d578063a22cb46514610456578063b88d4fde1461047f578063c87b56dd146104a8578063e5949b5d146104e5578063e985e9c51461052457610135565b806370a08231146103535780637734a9f6146103905780638da5cb5b146103bb57806395d89b41146103e6578063a0712d681461041157610135565b806318160ddd116100fd57806318160ddd1461024557806323b872dd146102705780633ccfd60b1461029957806342842e0e146102b05780636352211e146102d9578063681947191461031657610135565b806301ffc9a71461013a57806306fdde0314610177578063081812fc146101a2578063095ea7b3146101df57806310df54a014610208575b600080fd5b34801561014657600080fd5b50610161600480360381019061015c9190611dac565b610561565b60405161016e9190611df4565b60405180910390f35b34801561018357600080fd5b5061018c610643565b6040516101999190611e9f565b60405180910390f35b3480156101ae57600080fd5b506101c960048036038101906101c49190611ef7565b6106d5565b6040516101d69190611f65565b60405180910390f35b3480156101eb57600080fd5b5061020660048036038101906102019190611fac565b6106f1565b005b34801561021457600080fd5b5061022f600480360381019061022a9190611ef7565b610707565b60405161023c9190612095565b60405180910390f35b34801561025157600080fd5b5061025a6107da565b60405161026791906120c6565b60405180910390f35b34801561027c57600080fd5b50610297600480360381019061029291906120e1565b6107e0565b005b3480156102a557600080fd5b506102ae6108e2565b005b3480156102bc57600080fd5b506102d760048036038101906102d291906120e1565b6109d7565b005b3480156102e557600080fd5b5061030060048036038101906102fb9190611ef7565b6109f7565b60405161030d9190611f65565b60405180910390f35b34801561032257600080fd5b5061033d60048036038101906103389190612134565b610a09565b60405161034a9190611df4565b60405180910390f35b34801561035f57600080fd5b5061037a60048036038101906103759190612174565b610a38565b60405161038791906120c6565b60405180910390f35b34801561039c57600080fd5b506103a5610af2565b6040516103b291906120c6565b60405180910390f35b3480156103c757600080fd5b506103d0610af8565b6040516103dd9190611f65565b60405180910390f35b3480156103f257600080fd5b506103fb610b1e565b6040516104089190611e9f565b60405180910390f35b61042b60048036038101906104269190611ef7565b610bb0565b005b34801561043957600080fd5b50610454600480360381019061044f91906122d6565b610ced565b005b34801561046257600080fd5b5061047d6004803603810190610478919061235e565b610dc2565b005b34801561048b57600080fd5b506104a660048036038101906104a1919061243f565b610dd8565b005b3480156104b457600080fd5b506104cf60048036038101906104ca9190611ef7565b610df5565b6040516104dc9190611e9f565b60405180910390f35b3480156104f157600080fd5b5061050c60048036038101906105079190611ef7565b610e5e565b60405161051b939291906124c2565b60405180910390f35b34801561053057600080fd5b5061054b60048036038101906105469190612500565b610f10565b6040516105589190611df4565b60405180910390f35b60007f80ac58cd000000000000000000000000000000000000000000000000000000007bffffffffffffffffffffffffffffffffffffffffffffffffffffffff1916827bffffffffffffffffffffffffffffffffffffffffffffffffffffffff1916148061062c57507f5b5e139f000000000000000000000000000000000000000000000000000000007bffffffffffffffffffffffffffffffffffffffffffffffffffffffff1916827bffffffffffffffffffffffffffffffffffffffffffffffffffffffff1916145b8061063c575061063b82610fa4565b5b9050919050565b6060600080546106529061256f565b80601f016020809104026020016040519081016040528092919081815260200182805461067e9061256f565b80156106cb5780601f106106a0576101008083540402835291602001916106cb565b820191906000526020600020905b8154815290600101906020018083116106ae57829003601f168201915b5050505050905090565b60006106e08261100e565b506106ea82611096565b9050919050565b61070382826106fe6110d3565b6110db565b5050565b61070f611d1f565b60096000838152602001908152602001600020604051806060016040529081600082015481526020016001820180546107479061256f565b80601f01602080910402602001604051908101604052809291908181526020018280546107739061256f565b80156107c05780601f10610795576101008083540402835291602001916107c0565b820191906000526020600020905b8154815290600101906020018083116107a357829003601f168201915b505050505081526020016002820154815250509050919050565b60065481565b600073ffffffffffffffffffffffffffffffffffffffff168273ffffffffffffffffffffffffffffffffffffffff16036108525760006040517f64a0ae920000000000000000000000000000000000000000000000000000000081526004016108499190611f65565b60405180910390fd5b600061086683836108616110d3565b6110ed565b90508373ffffffffffffffffffffffffffffffffffffffff168173ffffffffffffffffffffffffffffffffffffffff16146108dc578382826040517f64283d7b0000000000000000000000000000000000000000000000000000000081526004016108d3939291906125a0565b60405180910390fd5b50505050565b600860009054906101000a900473ffffffffffffffffffffffffffffffffffffffff1673ffffffffffffffffffffffffffffffffffffffff163373ffffffffffffffffffffffffffffffffffffffff161461093c57600080fd5b6000600860009054906101000a900473ffffffffffffffffffffffffffffffffffffffff1673ffffffffffffffffffffffffffffffffffffffff164760405161098490612608565b60006040518083038185875af1925050503d80600081146109c1576040519150601f19603f3d011682016040523d82523d6000602084013e6109c6565b606091505b50509050806109d457600080fd5b50565b6109f283838360405180602001604052806000815250610dd8565b505050565b6000610a028261100e565b9050919050565b600a6020528160005260406000206020528060005260406000206000915091509054906101000a900460ff1681565b60008073ffffffffffffffffffffffffffffffffffffffff168273ffffffffffffffffffffffffffffffffffffffff1603610aab5760006040517f89c62b64000000000000000000000000000000000000000000000000000000008152600401610aa29190611f65565b60405180910390fd5b600360008373ffffffffffffffffffffffffffffffffffffffff1673ffffffffffffffffffffffffffffffffffffffff168152602001908152602001600020549050919050565b60075481565b600860009054906101000a900473ffffffffffffffffffffffffffffffffffffffff1681565b606060018054610b2d9061256f565b80601f0160208091040260200160405190810160405280929190818152602001828054610b599061256f565b8015610ba65780601f10610b7b57610100808354040283529160200191610ba6565b820191906000526020600020905b815481529060010190602001808311610b8957829003601f168201915b5050505050905090565b60008103610bbd57600080fd5b600754811115610bcc57600080fd5b60001515600a600083815260200190815260200160002060003373ffffffffffffffffffffffffffffffffffffffff1673ffffffffffffffffffffffffffffffffffffffff16815260200190815260200160002060009054906101000a900460ff16151514610c3a57600080fd5b6009600082815260200190815260200160002060020154341015610c5d57600080fd5b6001600a600083815260200190815260200160002060003373ffffffffffffffffffffffffffffffffffffffff1673ffffffffffffffffffffffffffffffffffffffff16815260200190815260200160002060006101000a81548160ff02191690831515021790555060066000815480929190610cd99061264c565b9190505550610cea33600654611307565b50565b600860009054906101000a900473ffffffffffffffffffffffffffffffffffffffff1673ffffffffffffffffffffffffffffffffffffffff163373ffffffffffffffffffffffffffffffffffffffff1614610d4757600080fd5b60076000815480929190610d5a9061264c565b91905055506040518060600160405280600754815260200183815260200182815250600960006007548152602001908152602001600020600082015181600001556020820151816001019081610db09190612840565b50604082015181600201559050505050565b610dd4610dcd6110d3565b8383611325565b5050565b610de38484846107e0565b610def84848484611494565b50505050565b6060610e008261100e565b506000610e0b61164b565b90506000815111610e2b5760405180602001604052806000815250610e56565b80610e3584611662565b604051602001610e4692919061294e565b6040516020818303038152906040525b915050919050565b6009602052806000526040600020600091509050806000015490806001018054610e879061256f565b80601f0160208091040260200160405190810160405280929190818152602001828054610eb39061256f565b8015610f005780601f10610ed557610100808354040283529160200191610f00565b820191906000526020600020905b815481529060010190602001808311610ee357829003601f168201915b5050505050908060020154905083565b6000600560008473ffffffffffffffffffffffffffffffffffffffff1673ffffffffffffffffffffffffffffffffffffffff16815260200190815260200160002060008373ffffffffffffffffffffffffffffffffffffffff1673ffffffffffffffffffffffffffffffffffffffff16815260200190815260200160002060009054906101000a900460ff16905092915050565b60007f01ffc9a7000000000000000000000000000000000000000000000000000000007bffffffffffffffffffffffffffffffffffffffffffffffffffffffff1916827bffffffffffffffffffffffffffffffffffffffffffffffffffffffff1916149050919050565b60008061101a83611730565b9050600073ffffffffffffffffffffffffffffffffffffffff168173ffffffffffffffffffffffffffffffffffffffff160361108d57826040517f7e27328900000000000000000000000000000000000000000000000000000000815260040161108491906120c6565b60405180910390fd5b80915050919050565b60006004600083815260200190815260200160002060009054906101000a900473ffffffffffffffffffffffffffffffffffffffff169050919050565b600033905090565b6110e8838383600161176d565b505050565b6000806110f984611730565b9050600073ffffffffffffffffffffffffffffffffffffffff168373ffffffffffffffffffffffffffffffffffffffff161461113b5761113a818486611932565b5b600073ffffffffffffffffffffffffffffffffffffffff168173ffffffffffffffffffffffffffffffffffffffff16146111cc5761117d60008560008061176d565b6001600360008373ffffffffffffffffffffffffffffffffffffffff1673ffffffffffffffffffffffffffffffffffffffff168152602001908152602001600020600082825403925050819055505b600073ffffffffffffffffffffffffffffffffffffffff168573ffffffffffffffffffffffffffffffffffffffff161461124f576001600360008773ffffffffffffffffffffffffffffffffffffffff1673ffffffffffffffffffffffffffffffffffffffff168152602001908152602001600020600082825401925050819055505b846002600086815260200190815260200160002060006101000a81548173ffffffffffffffffffffffffffffffffffffffff021916908373ffffffffffffffffffffffffffffffffffffffff160217905550838573ffffffffffffffffffffffffffffffffffffffff168273ffffffffffffffffffffffffffffffffffffffff167fddf252ad1be2c89b69c2b068fc378daa952ba7f163c4a11628f55a4df523b3ef60405160405180910390a4809150509392505050565b6113218282604051806020016040528060008152506119f6565b5050565b600073ffffffffffffffffffffffffffffffffffffffff168273ffffffffffffffffffffffffffffffffffffffff160361139657816040517f5b08ba1800000000000000000000000000000000000000000000000000000000815260040161138d9190611f65565b60405180910390fd5b80600560008573ffffffffffffffffffffffffffffffffffffffff1673ffffffffffffffffffffffffffffffffffffffff16815260200190815260200160002060008473ffffffffffffffffffffffffffffffffffffffff1673ffffffffffffffffffffffffffffffffffffffff16815260200190815260200160002060006101000a81548160ff0219169083151502179055508173ffffffffffffffffffffffffffffffffffffffff168373ffffffffffffffffffffffffffffffffffffffff167f17307eab39ab6107e8899845ad3d59bd9653f200f220920489ca2b5937696c31836040516114879190611df4565b60405180910390a3505050565b60008373ffffffffffffffffffffffffffffffffffffffff163b1115611645578273ffffffffffffffffffffffffffffffffffffffff1663150b7a026114d86110d3565b8685856040518563ffffffff1660e01b81526004016114fa94939291906129c7565b6020604051808303816000875af192505050801561153657506040513d601f19601f820116820180604052508101906115339190612a28565b60015b6115ba573d8060008114611566576040519150601f19603f3d011682016040523d82523d6000602084013e61156b565b606091505b5060008151036115b257836040517f64a0ae920000000000000000000000000000000000000000000000000000000081526004016115a99190611f65565b60405180910390fd5b805181602001fd5b63150b7a0260e01b7bffffffffffffffffffffffffffffffffffffffffffffffffffffffff1916817bffffffffffffffffffffffffffffffffffffffffffffffffffffffff19161461164357836040517f64a0ae9200000000000000000000000000000000000000000000000000000000815260040161163a9190611f65565b60405180910390fd5b505b50505050565b606060405180602001604052806000815250905090565b60606000600161167184611a12565b01905060008167ffffffffffffffff8111156116905761168f6121ab565b5b6040519080825280601f01601f1916602001820160405280156116c25781602001600182028036833780820191505090505b509050600082602001820190505b600115611725578080600190039150507f3031323334353637383961626364656600000000000000000000000000000000600a86061a8153600a858161171957611718612a55565b5b049450600085036116d0575b819350505050919050565b60006002600083815260200190815260200160002060009054906101000a900473ffffffffffffffffffffffffffffffffffffffff169050919050565b80806117a65750600073ffffffffffffffffffffffffffffffffffffffff168273ffffffffffffffffffffffffffffffffffffffff1614155b156118da5760006117b68461100e565b9050600073ffffffffffffffffffffffffffffffffffffffff168373ffffffffffffffffffffffffffffffffffffffff161415801561182157508273ffffffffffffffffffffffffffffffffffffffff168173ffffffffffffffffffffffffffffffffffffffff1614155b801561183457506118328184610f10565b155b1561187657826040517fa9fbf51f00000000000000000000000000000000000000000000000000000000815260040161186d9190611f65565b60405180910390fd5b81156118d857838573ffffffffffffffffffffffffffffffffffffffff168273ffffffffffffffffffffffffffffffffffffffff167f8c5be1e5ebec7d5bd14f71427d1e84f3dd0314c0f7b2291e5b200ac8c7c3b92560405160405180910390a45b505b836004600085815260200190815260200160002060006101000a81548173ffffffffffffffffffffffffffffffffffffffff021916908373ffffffffffffffffffffffffffffffffffffffff16021790555050505050565b61193d838383611b65565b6119f157600073ffffffffffffffffffffffffffffffffffffffff168373ffffffffffffffffffffffffffffffffffffffff16036119b257806040517f7e2732890000000000000000000000000000000000000000000000000000000081526004016119a991906120c6565b60405180910390fd5b81816040517f177e802f0000000000000000000000000000000000000000000000000000000081526004016119e8929190612a84565b60405180910390fd5b505050565b611a008383611c26565b611a0d6000848484611494565b505050565b600080600090507a184f03e93ff9f4daa797ed6e38ed64bf6a1f0100000000000000008310611a70577a184f03e93ff9f4daa797ed6e38ed64bf6a1f0100000000000000008381611a6657611a65612a55565b5b0492506040810190505b6d04ee2d6d415b85acef81000000008310611aad576d04ee2d6d415b85acef81000000008381611aa357611aa2612a55565b5b0492506020810190505b662386f26fc100008310611adc57662386f26fc100008381611ad257611ad1612a55565b5b0492506010810190505b6305f5e1008310611b05576305f5e1008381611afb57611afa612a55565b5b0492506008810190505b6127108310611b2a576127108381611b2057611b1f612a55565b5b0492506004810190505b60648310611b4d5760648381611b4357611b42612a55565b5b0492506002810190505b600a8310611b5c576001810190505b80915050919050565b60008073ffffffffffffffffffffffffffffffffffffffff168373ffffffffffffffffffffffffffffffffffffffff1614158015611c1d57508273ffffffffffffffffffffffffffffffffffffffff168473ffffffffffffffffffffffffffffffffffffffff161480611bde5750611bdd8484610f10565b5b80611c1c57508273ffffffffffffffffffffffffffffffffffffffff16611c0483611096565b73ffffffffffffffffffffffffffffffffffffffff16145b5b90509392505050565b600073ffffffffffffffffffffffffffffffffffffffff168273ffffffffffffffffffffffffffffffffffffffff1603611c985760006040517f64a0ae92000000000000000000000000000000000000000000000000000000008152600401611c8f9190611f65565b60405180910390fd5b6000611ca6838360006110ed565b9050600073ffffffffffffffffffffffffffffffffffffffff168173ffffffffffffffffffffffffffffffffffffffff1614611d1a5760006040517f73c6ac6e000000000000000000000000000000000000000000000000000000008152600401611d119190611f65565b60405180910390fd5b505050565b60405180606001604052806000815260200160608152602001600081525090565b6000604051905090565b600080fd5b600080fd5b60007fffffffff0000000000000000000000000000000000000000000000000000000082169050919050565b611d8981611d54565b8114611d9457600080fd5b50565b600081359050611da681611d80565b92915050565b600060208284031215611dc257611dc1611d4a565b5b6000611dd084828501611d97565b91505092915050565b60008115159050919050565b611dee81611dd9565b82525050565b6000602082019050611e096000830184611de5565b92915050565b600081519050919050565b600082825260208201905092915050565b60005b83811015611e49578082015181840152602081019050611e2e565b60008484015250505050565b6000601f19601f8301169050919050565b6000611e7182611e0f565b611e7b8185611e1a565b9350611e8b818560208601611e2b565b611e9481611e55565b840191505092915050565b60006020820190508181036000830152611eb98184611e66565b905092915050565b6000819050919050565b611ed481611ec1565b8114611edf57600080fd5b50565b600081359050611ef181611ecb565b92915050565b600060208284031215611f0d57611f0c611d4a565b5b6000611f1b84828501611ee2565b91505092915050565b600073ffffffffffffffffffffffffffffffffffffffff82169050919050565b6000611f4f82611f24565b9050919050565b611f5f81611f44565b82525050565b6000602082019050611f7a6000830184611f56565b92915050565b611f8981611f44565b8114611f9457600080fd5b50565b600081359050611fa681611f80565b92915050565b60008060408385031215611fc357611fc2611d4a565b5b6000611fd185828601611f97565b9250506020611fe285828601611ee2565b9150509250929050565b611ff581611ec1565b82525050565b600082825260208201905092915050565b600061201782611e0f565b6120218185611ffb565b9350612031818560208601611e2b565b61203a81611e55565b840191505092915050565b600060608301600083015161205d6000860182611fec565b5060208301518482036020860152612075828261200c565b915050604083015161208a6040860182611fec565b508091505092915050565b600060208201905081810360008301526120af8184612045565b905092915050565b6120c081611ec1565b82525050565b60006020820190506120db60008301846120b7565b92915050565b6000806000606084860312156120fa576120f9611d4a565b5b600061210886828701611f97565b935050602061211986828701611f97565b925050604061212a86828701611ee2565b9150509250925092565b6000806040838503121561214b5761214a611d4a565b5b600061215985828601611ee2565b925050602061216a85828601611f97565b9150509250929050565b60006020828403121561218a57612189611d4a565b5b600061219884828501611f97565b91505092915050565b600080fd5b600080fd5b7f4e487b7100000000000000000000000000000000000000000000000000000000600052604160045260246000fd5b6121e382611e55565b810181811067ffffffffffffffff82111715612202576122016121ab565b5b80604052505050565b6000612215611d40565b905061222182826121da565b919050565b600067ffffffffffffffff821115612241576122406121ab565b5b61224a82611e55565b9050602081019050919050565b82818337600083830152505050565b600061227961227484612226565b61220b565b905082815260208101848484011115612295576122946121a6565b5b6122a0848285612257565b509392505050565b600082601f8301126122bd576122bc6121a1565b5b81356122cd848260208601612266565b91505092915050565b600080604083850312156122ed576122ec611d4a565b5b600083013567ffffffffffffffff81111561230b5761230a611d4f565b5b612317858286016122a8565b925050602061232885828601611ee2565b9150509250929050565b61233b81611dd9565b811461234657600080fd5b50565b60008135905061235881612332565b92915050565b6000806040838503121561237557612374611d4a565b5b600061238385828601611f97565b925050602061239485828601612349565b9150509250929050565b600067ffffffffffffffff8211156123b9576123b86121ab565b5b6123c282611e55565b9050602081019050919050565b60006123e26123dd8461239e565b61220b565b9050828152602081018484840111156123fe576123fd6121a6565b5b612409848285612257565b509392505050565b600082601f830112612426576124256121a1565b5b81356124368482602086016123cf565b91505092915050565b6000806000806080858703121561245957612458611d4a565b5b600061246787828801611f97565b945050602061247887828801611f97565b935050604061248987828801611ee2565b925050606085013567ffffffffffffffff8111156124aa576124a9611d4f565b5b6124b687828801612411565b91505092959194509250565b60006060820190506124d760008301866120b7565b81810360208301526124e98185611e66565b90506124f860408301846120b7565b949350505050565b6000806040838503121561251757612516611d4a565b5b600061252585828601611f97565b925050602061253685828601611f97565b9150509250929050565b7f4e487b7100000000000000000000000000000000000000000000000000000000600052602260045260246000fd5b6000600282049050600182168061258757607f821691505b60208210810361259a57612599612540565b5b50919050565b60006060820190506125b56000830186611f56565b6125c260208301856120b7565b6125cf6040830184611f56565b949350505050565b600081905092915050565b50565b60006125f26000836125d7565b91506125fd826125e2565b600082019050919050565b6000612613826125e5565b9150819050919050565b7f4e487b7100000000000000000000000000000000000000000000000000000000600052601160045260246000fd5b600061265782611ec1565b91507fffffffffffffffffffffffffffffffffffffffffffffffffffffffffffffffff82036126895761268861261d565b5b600182019050919050565b60008190508160005260206000209050919050565b60006020601f8301049050919050565b600082821b905092915050565b6000600883026126f67fffffffffffffffffffffffffffffffffffffffffffffffffffffffffffffffff826126b9565b61270086836126b9565b95508019841693508086168417925050509392505050565b6000819050919050565b600061273d61273861273384611ec1565b612718565b611ec1565b9050919050565b6000819050919050565b61275783612722565b61276b61276382612744565b8484546126c6565b825550505050565b600090565b612780612773565b61278b81848461274e565b505050565b5b818110156127af576127a4600082612778565b600181019050612791565b5050565b601f8211156127f4576127c581612694565b6127ce846126a9565b810160208510156127dd578190505b6127f16127e9856126a9565b830182612790565b50505b505050565b600082821c905092915050565b6000612817600019846008026127f9565b1980831691505092915050565b60006128308383612806565b9150826002028217905092915050565b61284982611e0f565b67ffffffffffffffff811115612862576128616121ab565b5b61286c825461256f565b6128778282856127b3565b600060209050601f8311600181146128aa5760008415612898578287015190505b6128a28582612824565b86555061290a565b601f1984166128b886612694565b60005b828110156128e0578489015182556001820191506020850194506020810190506128bb565b868310156128fd57848901516128f9601f891682612806565b8355505b6001600288020188555050505b505050505050565b600081905092915050565b600061292882611e0f565b6129328185612912565b9350612942818560208601611e2b565b80840191505092915050565b600061295a828561291d565b9150612966828461291d565b91508190509392505050565b600081519050919050565b600082825260208201905092915050565b600061299982612972565b6129a3818561297d565b93506129b3818560208601611e2b565b6129bc81611e55565b840191505092915050565b60006080820190506129dc6000830187611f56565b6129e96020830186611f56565b6129f660408301856120b7565b8181036060830152612a08818461298e565b905095945050505050565b600081519050612a2281611d80565b92915050565b600060208284031215612a3e57612a3d611d4a565b5b6000612a4c84828501612a13565b91505092915050565b7f4e487b7100000000000000000000000000000000000000000000000000000000600052601260045260246000fd5b6000604082019050612a996000830185611f56565b612aa660208301846120b7565b939250505056fea2646970667358221220a926df4a088816db45b570a6235f6a7bc124053707bdd9abc3d1a344d618772364736f6c63430008140033",
  "linkReferences": {},
  "deployedLinkReferences": {}
}